:100000000C947D000C94A5000C94A5000C94A50004
:100010000C94A5000C94A5000C94A5000C94A500CC
:100020000C94A5000C94A5000C94A5000C94A500BC
:100030000C94A5000C94A5000C94A5000C94A500AC
:100040000C947D020C94A5000C94B0010C948A01D0
:100050000C94A5000C94A5000C94A5000C94A5008C
:100060000C94A5000C94A500670B6B0B6F0B730B26
:100070007B0B7F0B830B870B084AD73B3BCE016E74
:1000800084BCBFFDC12F3D6C74319ABD56833DDAEF
:100090003D00C77F11BED9E4BB4C3E916BAAAABEFE
:1000A000000000803F0000000000240027002A001C
:1000B0000000000800020100000304070000000027
:1000C0000000000001020408102040800102040822
:1000D0001020010204081020000000002500280064
:1000E0002B000404040404040404020202020202B9
:1000F0000303030303039F0C8F0C11241FBECFEFD8
:10010000D8E0DEBFCDBF11E0A0E0B1E0ECE6F5E263
:1001100002C005900D92AA36B107D9F723E0AAE6EE
:10012000B1E001C01D92AF3CB207E1F710E0CCE7AF
:10013000D0E004C02197FE010E946D0DCB37D1079E
:10014000C9F70E94AF060C94A9120C940000FC01A0
:10015000918D828D981761F0828DDF01A80FB11DFE
:100160005D968C91928D9F5F9F73928F90E0089522
:100170008FEF9FEF0895FC01918D828D981731F0DC
:10018000828DE80FF11D858D90E008958FEF9FEF30
:100190000895FC01918D228D892F90E0805C9F4F06
:1001A000821B91098F739927089586E992E00E9436
:1001B000C90021E0892B09F420E0822F0895FC0179
:1001C000848DDF01A80FB11DA35ABF4F2C91848DE0
:1001D00090E001968F739927848FA689B7892C9315
:1001E000A089B1898C9180648C93938D848D9813B0
:1001F00006C00288F389E02D80818F7D8083089579
:10020000EF92FF920F931F93CF93DF93EC0181E066
:10021000888F9B8D8C8D981305C0E889F989808122
:1002200085FD24C0F62E0B8D10E00F5F1F4F0F735E
:100230001127E02E8C8DE8120CC00FB607FCFACF08
:10024000E889F989808185FFF5CFCE010E94DF0022
:10025000F1CF8B8DFE01E80FF11DE35AFF4FF082C5
:100260000B8FEA89FB898081806207C0EE89FF8954
:100270006083E889F98980818064808381E090E0EF
:10028000DF91CF911F910F91FF90EF900895CF9341
:10029000DF93EC01888D8823C9F0EA89FB8980818E
:1002A00085FD05C0A889B9898C9186FD0FC00FB660
:1002B00007FCF5CF808185FFF2CFA889B9898C91A1
:1002C00085FFEDCFCE010E94DF00E7CFDF91CF9118
:1002D000089580E090E0892B29F00E94D5008111DB
:1002E0000C94000008958E3008F08E508770806462
:1002F00080937C0080917A00806480937A00809162
:100300007A0086FDFCCF809178002091790090E002
:10031000922B08951F920F920FB60F9211242F93D4
:100320003F934F935F936F937F938F939F93AF937D
:10033000BF93EF93FF9386E992E00E94DF00FF9165
:10034000EF91BF91AF919F918F917F916F915F914D
:100350004F913F912F910F900FBE0F901F901895C6
:100360001F920F920FB60F9211242F938F939F938A
:10037000EF93FF93E091A602F091A7028081E091B4
:10038000AC02F091AD0282FD12C090818091AF026B
:100390008F5F8F732091B002821751F0E091AF020E
:1003A000F0E0EA56FD4F958F8093AF0201C0808147
:1003B000FF91EF919F918F912F910F900FBE0F9012
:1003C0001F901895CF93DF9390E0FC01EC53FF4F03
:1003D0002491FC01EE51FF4F8491882361F190E05C
:1003E000880F991FFC01EA55FF4FC591D491FC017C
:1003F000E852FF4FA591B491611109C09FB7F894DD
:100400008881209582238883EC912E230BC0623053
:1004100061F49FB7F8943881822F80958323888375
:10042000EC912E2B2C939FBF06C08FB7F894E881D8
:100430002E2B28838FBFDF91CF9108953FB7F8947B
:1004400080916B0190916C01A0916D01B0916E0152
:1004500026B5A89B05C02F3F19F00196A11DB11D1F
:100460003FBFBA2FA92F982F8827820F911DA11D5A
:10047000B11DBC01CD0142E0660F771F881F991F97
:100480004A95D1F708958F929F92AF92BF92CF92E3
:10049000DF92EF92FF926B017C010E941E024B01E2
:1004A0005C01C114D104E104F104F1F00E941E02C8
:1004B000DC01CB0188199909AA09BB09883E934040
:1004C000A105B10570F321E0C21AD108E108F108D5
:1004D00088EE880E83E0981EA11CB11CC114D104C3
:1004E000E104F10419F7DDCFFF90EF90DF90CF909A
:1004F000BF90AF909F908F9008951F920F920FB66C
:100500000F9211242F933F938F939F93AF93BF9399
:1005100080916F0190917001A0917101B091720171
:1005200030916A0123E0230F2D3720F40196A11D9D
:10053000B11D05C026E8230F0296A11DB11D209311
:100540006A0180936F0190937001A0937101B09341
:10055000720180916B0190916C01A0916D01B0913D
:100560006E010196A11DB11D80936B0190936C01EA
:10057000A0936D01B0936E01BF91AF919F918F9148
:100580003F912F910F900FBE0F901F9018954F9293
:100590005F926F927F928F929F92AF92BF92CF9213
:1005A000DF92EF92FF92CF93DF93EC010E94141140
:1005B0002CED30E040E050E00E9468126456710972
:1005C000810991090E9429116B017C0120E030E032
:1005D00048EC52E40E94280F18162CF0C882D982E9
:1005E000EA82FB8208C080E090E0A8ECB2E4888355
:1005F0009983AA83BB8320E030E048EC52E4688111
:1006000079818A819B810E94590E688379838A83CC
:100610009B830E9414112CED30E040E050E00E94DA
:10062000681264567109810991090E9429116B01B0
:100630007C0120E030E048EC52E40E94280F1816BC
:100640002CF0CC82DD82EE82FF8208C080E090E058
:10065000A8ECB2E48C839D83AE83BF8320E030E0BE
:1006600048EC52E46C817D818E819F810E94590EFD
:100670006B017C016C837D838E839F8348805980CE
:100680006A807B80A3019201C301B2010E9488119C
:100690004B015C01A7019601C701B6010E948811B8
:1006A0009B01AC01C501B4010E947B0D0E943B0F70
:1006B0004B015C0120E030E0A9010E942211882357
:1006C000F1F020E030E040E85FE3C501B4010E94B2
:1006D00022118823A1F0A5019401C301B2010E9457
:1006E000590E688379838A839B83A5019401C7018E
:1006F000B6010E94590E6C837D838E839F83DF91A8
:10070000CF91FF90EF90DF90CF90BF90AF909F90F0
:100710008F907F906F905F904F900895CF92DF926F
:10072000EF92FF920F931F93CF93DF936C017A01A7
:100730008B01C0E0D0E0CE15DF0589F0D8016D91C6
:100740008D01D601ED91FC910190F081E02DC60163
:100750000995892B11F47E0102C02196ECCFC701C7
:10076000DF91CF911F910F91FF90EF90DF90CF908D
:1007700008950E94C11090E0FC01E055FF4F2491C4
:10078000FC01EC53FF4F3491FC01EE51FF4FE4911B
:10079000EE23B9F1222339F1233091F038F42130DE
:1007A000A9F0223001F584B58F7D12C0273091F079
:1007B0002830A1F02430B9F4809180008F7D03C0EF
:1007C000809180008F77809380000DC084B58F77F3
:1007D00084BD09C08091B0008F7703C08091B000C4
:1007E0008F7D8093B000F0E0EE0FFF1FE852FF4FC7
:1007F000A591B4918FB7F894EC9130953E233C933A
:100800008FBF0895E6E9F2E0A089B18982E08C9378
:10081000A485B5851C92A685B7858FEC8C93108E28
:10082000A489B58986E08C93A289B3898C91806173
:100830008C93A289B3898C9188608C93A289B389A7
:100840008C9180688C930288F389E02D80818F7D64
:10085000808308952F923F924F925F926F927F9282
:100860008F929F92AF92BF92CF92DF92EF92FF92C0
:100870000F931F93CF93DF93CDB7DEB729970FB6B2
:10088000F894DEBF0FBECDBF8C0169870E94C702FE
:10089000F80180809180A280B3804480558066807A
:1008A0007780A5019401C301B2010E94FA0D90580E
:1008B00021EE3EE245E652E40E9488116B017C0184
:1008C00020E030E044E353EC0E942211882309F435
:1008D00068C020E030E0A901C701B6010E942211E2
:1008E000882309F45EC02090560330905703B1016D
:1008F000032C000C880B990B0E9429119B01AC0161
:10090000C701B6010E94280F181694F464EB70E03A
:1009100062197309072E000C880B990B0E9429118C
:100920009B01AC01C701B6010E9422111816CCF53B
:10093000B101645B7109072E000C880B990B0E94B2
:1009400029119B01AC01C701B6010E94280F87FD48
:1009500012C06627772762197309072E000C880BCF
:10096000990B0E9429119B01AC01C701B6010E949D
:10097000221187FD16C0F985F1110AC020E030E090
:10098000A901C501B4010E94221187FF17C009C047
:1009900020E030E0A901C501B4010E94280F18161B
:1009A0006CF4CE0101960E94C702FE013196D80177
:1009B00088E001900D928A95E1F76ACFC0905203CA
:1009C000D0905303E0905403F0905503A701960193
:1009D000C501B4010E948811F8016083718382838C
:1009E0009383A7019601C301B2010E948811F80107
:1009F0006483758386839783C80129960FB6F8941C
:100A0000DEBF0FBECDBFDF91CF911F910F91FF9041
:100A1000EF90DF90CF90BF90AF909F908F907F909E
:100A20006F905F904F903F902F9008950F931F937A
:100A3000CF93DF93CDB7DEB729970FB6F894DEBF1B
:100A40000FBECDBF0E941E020091C4031091C503CA
:100A50002091C6033091C703DC01CB01801B910BB1
:100A6000A20BB30BC297A105B10560F3F894809176
:100A7000BA039091BB039A838983E091BE03F091FE
:100A8000BF03DF011196808189879091B603E091C1
:100A9000C803F091C9038091CA03992309F42EC0B9
:100AA0009081982B98879081809589238F838F815F
:100AB0008C8388E08B8358856F8149853B812C81AD
:100AC00089819A81508347FD252F3A952083262FCF
:100AD00039F0441F00C000006083000000C0F2CF66
:100AE00038E04D9160830000019761F7F093C903EE
:100AF000E093C80349873B832C8338C09081982BAF
:100B000098879081809589238F838F818E8388E059
:100B10008D8358856F8149853D812E8189819A8198
:100B2000508347FD252F00C000C0208300C000C0B7
:100B300000C000C000C060830000262F3A9541F03D
:100B4000441F000000C000C000C000C000C0E8CFCB
:100B500038E04D9100C0608300C0019709F7F09321
:100B6000C903E093C80349873D832E839A83898311
:100B700078940E941E026093C4037093C50380930F
:100B8000C6039093C70329960FB6F894DEBF0FBE35
:100B9000CDBFDF91CF911F910F9108958F929F92BA
:100BA000AF92BF92CF92DF92EF92FF921F93CF93BB
:100BB000DF93EC011A8520913B0330913C03409177
:100BC0003D0350913E036091330370913403809153
:100BD000350390913603112309F440C00E947B0D28
:100BE0006B017C0120E030E040E05FE368817981C7
:100BF0008A819B810E947B0D9B01AC01C701B601DC
:100C00000E94221118160CF487C020913F033091E6
:100C1000400340914103509142036091370370912A
:100C200038038091390390913A030E947B0D6B0148
:100C30007C018C809D80AE80BF8020E030E040E071
:100C40005FE3C501B4010E947A0D9B01AC01C701AD
:100C5000B6010E94280F87FD5FC03FC00E947B0D38
:100C60006B017C0120E030E040E05FE36881798146
:100C70008A819B810E947A0D9B01AC01C701B6015C
:100C80000E94280F18160CF048C020913F033091A5
:100C900040034091410350914203609137037091AA
:100CA00038038091390390913A030E947B0D6B01C8
:100CB0007C018C809D80AE80BF8020E030E040E0F1
:100CC0005FE3C501B4010E947B0D9B01AC01C7012C
:100CD000B6010E94280F87FD20C088859985BC0138
:100CE000990F880B990B0E9429119B01AC01C5013A
:100CF000B4010E947B0D20E030E040E05FE30E9401
:100D00007B0D9B01AC01C701B6010E942211182F77
:100D1000111F1127111F01C010E0812FDF91CF910A
:100D20001F91FF90EF90DF90CF90BF90AF909F907A
:100D30008F9008956115710579F0FB0101900020F5
:100D4000E9F73197AF01461B570BDC01ED91FC91A0
:100D50000280F381E02D099480E090E00895CF9324
:100D6000DF93CDB7DEB7C154D1090FB6F894DEBF1B
:100D70000FBECDBF789484B5826084BD84B5816098
:100D800084BD85B5826085BD85B5816085BD809156
:100D90006E00816080936E001092810080918100CE
:100DA00082608093810080918100816080938100C6
:100DB000809180008160809380008091B100846088
:100DC0008093B1008091B00081608093B0008091E9
:100DD0007A00846080937A0080917A0082608093A8
:100DE0007A0080917A00816080937A0080917A0005
:100DF000806880937A001092C1001092B203109222
:100E0000B3031092B4031092B503109270031092C2
:100E10007103109272031092730360ED77E080E02B
:100E200090E00E94430286E992E09093B1038093A0
:100E3000B0030E9402042FB7F89480916F01909143
:100E40007001A0917101B09172012FBF8093700366
:100E500090937103A0937203B09373036EE371E0F8
:100E60008091B0039091B1030E949A066AE070E00D
:100E700080E090E00E94430281E08093840363E17C
:100E800070E080E090E00E9419110E94020460E589
:100E900071E086E992E00E949A066DE471E086E9CD
:100EA00092E00E949A068091BC0387FD07C061E032
:100EB0000E94E2018091BC030E94BB0381E0809309
:100EC000B7038091BE039091BF03892B11F00E945C
:100ED000160580E090E0A0E8BFE380935203909372
:100EE0005303A0935403B093550381E490E090938F
:100EF00057038093560380E090E0A0E0B1E4809334
:100F0000330390933403A0933503B0933603809357
:100F1000370390933803A0933903B0933A030E94A8
:100F2000141160E0CE0101960E942A0488E0FE01BF
:100F30003196ABE3B3E001900D928A95E1F7109200
:100F400058031092590310925A0310925B0340E029
:100F500050E060EC70E440935C0350935D03609359
:100F60005E0370935F0385E090E09093610380934C
:100F7000600321E02093620300E010E020E831E408
:100F80000093630310936403209365033093660317
:100F900040936703509368036093690370936A03F7
:100FA00090936C0380936B0310926D03A0900A01E1
:100FB000ABAEB0900B01BCAEC0900C01CDAED090EA
:100FC0000D01DEAEA0900E01AFAE00E110E0809109
:100FD0006003909161032801481A590A052C000CFE
:100FE000660877088FE00E9473015C0180916B03B3
:100FF00090916C036801C81AD90A0D2C000CEE08F8
:10100000FF088EE00E9473018C01A3019201215020
:10101000310941095109D5010E9492122FEF33E0A5
:1010200040E050E00E946812DA01C9010196A11D5A
:10103000B11D682F70E080E090E00E94271160935E
:101040005C0370935D0380935E0390935F03A7013D
:1010500096012150310941095109D8010E9492128B
:101060002FEF33E040E050E00E946812DA01C9013E
:101070000196A11DB11D682F70E080E090E00E94F4
:1010800027116093670370936803809369039093BB
:101090006A03C0903F03D0904003E0904103F0907A
:1010A0004203209137033091380340913903509126
:1010B0003A03C701B6010E947B0D4B015C0120E0A1
:1010C00030E040E85EE30E94221187FD0AC020E084
:1010D00030E04CE751E4C501B4010E94280F181616
:1010E00064F4F7FAF094F7F8F094C0923F03D092CA
:1010F0004003E0924103F092420320913B03309180
:101100003C0340913D0350913E0360913303709145
:10111000340380913503909136030E947B0D20E0CB
:1011200030E040E85EEB0E94221187FF2CC080E097
:1011300090E0A0E0B1E48093330390933403A09354
:101140003503B09336038093370390933803A0930D
:101150003903B0933A0360E0CE0101960E942A045D
:1011600088E0FE013196ABE3B3E001900D928A95E1
:10117000E1F7809174018F5F823118F480937401DC
:1011800002C01092740120913B0330913C034091C6
:101190003D0350913E03609133037091340380917D
:1011A0003503909136030E947B0D20E030E04AE841
:1011B00051E40E94280F18166CF5A12CB12CC12CFB
:1011C00011E4D12EA0923303B0923403C0923503C0
:1011D000D0923603A0923703B0923803C0923903FD
:1011E000D0923A0361E0CE0101960E942A0488E081
:1011F000FE013196ABE3B3E001900D928A95E1F7E1
:10120000809173018F5F823118F48093730102C063
:101210001092730183E693E00E94CE05882389F043
:1012200080913B0390913C03A0913D03B0913E031C
:10123000B05880933B0390933C03A0933D03B0933D
:101240003E0388E593E00E94CE05882389F08091D3
:101250003B0390913C03A0913D03B0913E03B058F5
:1012600080933B0390933C03A0933D03B0933E03D4
:1012700020913B0330913C0340913D0350913E034C
:10128000609133037091340380913503909136035C
:101290000E947B0D4B015C01609333037093340318
:1012A000809335039093360320913F0330914003A0
:1012B000409141035091420360913703709138038C
:1012C0008091390390913A030E947B0D6B017C0160
:1012D00060933703709338038093390390933A03F4
:1012E0000091600310916103209162032D8F609142
:1012F00058037091590380915A0390915B030E94A7
:10130000CB0E2B013C011B0160915C0370915D03CE
:1013100080915E0390915F030E94CB0E9B01E1E1FF
:10132000E49DA001E59D500D1124640F751F80E020
:1013300090E080179107C4F44D8D411102C0A3E0E5
:1013400001C0A2E051E12516310464F4AC01420F62
:10135000531F4131510534F4FC01E60FF71FEB58E0
:10136000FE4FA0830196E5CF00916B0310916C03B3
:1013700020916D032D8F60916303709164038091C0
:101380006503909166030E94CB0E2B013C011B016B
:1013900060916703709168038091690390916A037B
:1013A0000E94CB0E9B01E1E1E49DA001E59D500D63
:1013B0001124640F751F80E090E080179107C4F43A
:1013C0004D8D411102C0A3E001C0A2E051E12516FC
:1013D000310464F4AC01420F531F4131510534F420
:1013E000FC01E60FF71FEB58FE4FA0830196E5CFF7
:1013F00010917401123140F4E5E9F2E080E090E0F0
:10140000212F30E045E00CC000917301023178F4E7
:10141000E5E7F1E080E090E0202F30E044E03AC0E2
:10142000821793078CF7408301967197F9CF85E077
:10143000E8E4F3E0ADE4B3E001900D928A95E1F7C2
:1014400085E0E3E4F3E0A8E4B3E001900D928A952F
:10145000E1F7C501B4010E94CB0E2B013C01072E20
:10146000000C880B990B0E9429119B01AC01C5014E
:10147000B4010E947A0D4B015C0120E030E040E0B5
:101480005FE30E94280F181664F452018FEFA81A28
:10149000B80A15C08217930754F6408301967196D7
:1014A000F9CF20E030E040E05FEBC501B4010E94DD
:1014B0002211520187FF03C091E0A91AB108C701A8
:1014C000B6010E94CB0E2B013C01072E000C880BAD
:1014D000990B0E9429119B01AC01C701B6010E9422
:1014E0007A0D6B017C0120E030E040E05FE30E9478
:1014F000280F181624F4AFEF4A1A5A0A0DC020E03C
:1015000030E040E05FEBC701B6010E94221187FF87
:1015100003C0B1E04B1A5108B0924403A0924303B8
:10152000509246034092450381E080934703E1E1F6
:10153000AE16B1048CF421E1421651046CF491E131
:101540009A9DF0019B9DF00D11249F01240D351DE6
:10155000F901EB58FE4F808380914C03813019F4E0
:1015600086E080934C0385E0E8E4F3E0DE011E961C
:1015700001900D928A95E1F785E0FE013E96DE012D
:10158000539601900D928A95E1F72B893C898D89BC
:101590009E894F89213131057CF48131910564F4B4
:1015A00051E1529FF001539FF00D11248E0F9F1FA8
:1015B000FC01EB58FE4F408380915103863019F4B3
:1015C00087E08093510385E0EDE4F3E0DE011996B6
:1015D00001900D928A95E1F785E0FE013996DE01D2
:1015E000589601900D928A95E1F7288D398D8A8D54
:1015F0009B8D4C8D213131057CF48131910564F452
:1016000051E1529FF001539FF00D11248E0F9F1F47
:10161000FC01EB58FE4F4083B5E78B2EB1E09B2ECB
:10162000340120E030E040910F014BA750911001B0
:101630005CA7809111018DA7909112019EA7A091A6
:101640001301AFA7B0911401B8ABE0911501E9AB5C
:10165000A09016012196AFAE2197B0901701229667
:10166000BFAE2297C0901801CDA2AAAABBAACCAA4D
:10167000D0901901DDAA40911A014EAB50911B0187
:101680005FAB80911C0188AF90911D0199AFA09133
:101690001E01AAAF7901E0E1EE0EF11C2901212C17
:1016A000312CC30185579140AC01417055275AA791
:1016B00049A7F301E20DF31DE0818E2F90E0883001
:1016C000910558F5FC01EC5CFF4F0C946D0D48AD95
:1016D00099AD8AAD1FC04DA99EA98FA91BC04AA96B
:1016E0009BA98CA917C021964FAD219722969FAD3B
:1016F00022978DA10FC04FA598A989A90BC04CA511
:101700009DA58EA507C04EAD9FAD8BA503C04BAD6B
:101710009CAD8DAD4FA39EA388A7A9A4BAA4AB2866
:1017200011F0C70101C0C2014091B8035091B90343
:101730008417950708F065C0BFA04B2D50E060E00E
:1017400070E0BA0155274427CEA05C29D8A44D29C2
:101750005B01CC24DD24AD8EBE8ECF8ED8A2A52E0B
:10176000B62EC72EDD24A9A2BAA2CBA2DCA2F9A173
:10177000E42FB090BD03B11002C0CD8C14C0AB2DCE
:10178000B0E0CD8CDE8CAC9DF001AD9DF00DBC9D2C
:10179000F00D1124CF2ED9A0DB9CF00111244B9D1C
:1017A000A0011124E52F4091C3035091C003609123
:1017B000BE037091BF03451308C0AC01440F551F11
:1017C000840F951F680F791F0AC0880F991F880F13
:1017D000991F680F791FDB01A40FB11D1C92809126
:1017E000C003DB01A80FB11DCC928091C103DB01C6
:1017F000A80FB11DFC938091C203DB01A80FB11D9E
:10180000EC9341E1240E311C51E0E51AF1088FEF11
:10181000481A580A91E2291691E0390609F049CF91
:101820002F5E3F4FAFEF6A1A7A0A2132B1E03B07D1
:1018300009F030CF8091BE039091BF03892BA1F0B6
:101840000E94160511C0F401E80FF91F108241969D
:10185000813251E09507B9F78FEF881A980A96E818
:10186000891691E0990619F080E090E0ECCFE02E27
:10187000F12CC701A0E0B0E0BC01CD0122E0660F71
:10188000771F881F991F2A95D1F731E1432E512CDC
:10189000612C712CA30192010E94681245E0C42EB4
:1018A000D12CC601821B930B90936103809360033C
:1018B000A12EB12CC501A0E0B0E0BC01CD0152E0E9
:1018C000660F771F881F991F5A95D1F7A3019201C0
:1018D0000E946812C21AD30AD0926C03C0926B03A2
:1018E000011708F47501A1E1B0E0AE19BF0928E2C3
:1018F00030E00E94730D21E130E040E050E00E94B2
:101900006812DA01C9010A96A11DB11DBC01990F27
:10191000880B990B0E9443020E94690156CB80916B
:10192000BE039091BF03009711F00E94291080918F
:10193000BC0387FD03C060E00C94E2010895CF93DF
:10194000DF93109299021092980288EE93E0A0E043
:10195000B0E080939A0290939B02A0939C02B09374
:101960009D0282E391E0909397028093960285EC2A
:1019700090E09093A3028093A20284EC90E0909375
:10198000A5028093A40280EC90E09093A70280933C
:10199000A60281EC90E09093A9028093A80282ECC9
:1019A00090E09093AB028093AA0286EC90E0909333
:1019B000AD028093AC021092AF021092B00210926E
:1019C000B1021092B2028FE0EFE1F1E0A3E4B3E0E4
:1019D00001900D928A95E1F71092740310927503AD
:1019E0001092760310927703109278031092790385
:1019F00010927A0310927B0310927C0310927D0365
:101A000010927E0310927F03109280031092810344
:101A100010928203109283031092B7031092BD03B9
:101A20001092C4031092C5031092C6031092C7030C
:101A300081E08093C3038093C0031092C10392E0BE
:101A40009093C2038093B603C3E6D3E0D093BB0365
:101A5000C093BA0383E693E00E94940F9093BF0370
:101A60008093BE03009769F0FC019E011192215002
:101A70003040E1F781E291E09093B9038093B8039D
:101A800008C01092BB031092BA031092B9031092CF
:101A9000B80386E08093BC038091B703882339F0B4
:101AA00061E086E00E94E20186E00E94BB03E8EE6E
:101AB000F0E0E491F0E0EE0FFF1FE852FF4F859158
:101AC00094919093C9038093C803EAECF0E0E49109
:101AD000E093CA03DF91CF910895EE0FFF1F0590A9
:101AE000F491E02D09940E949A12B7FF0895821B89
:101AF000930B08955058BB27AA270E94920D0C946F
:101B00000C120E94FE1138F00E94051220F039F4E8
:101B10009F3F19F426F40C94FB110EF4E095E7FBBB
:101B20000C94F511E92F0E941D1258F3BA176207A1
:101B300073078407950720F079F4A6F50C943F12FB
:101B40000EF4E0950B2EBA2FA02D0B01B9019001D8
:101B50000C01CA01A0011124FF27591B99F0593F1C
:101B600050F4503E68F11A16F040A22F232F342F64
:101B70004427585FF3CF469537952795A795F040B2
:101B80005395C9F77EF41F16BA0B620B730B840BC7
:101B9000BAF09150A1F0FF0FBB1F661F771F881F7F
:101BA000C2F70EC0BA0F621F731F841F48F48795D7
:101BB00077956795B795F7959E3F08F0B0CF9395C9
:101BC000880F08F09927EE0F9795879508950E9442
:101BD000FE1160F080E891E009F49EEF0E9405128A
:101BE00028F040E851E071F45EEF0CC00C94FB115A
:101BF0000C943F12E92FE0780E941D1240F3092E49
:101C0000052AB1F3261737074807590738F00E2E73
:101C100007F8E02569F0E025E0640AC0EF6307F803
:101C2000009407FADB01B9019D01DC01CA01AD0195
:101C3000EF930E94700E0E940C120E942A0E5F9178
:101C4000552339F02BED3FE049E450FD49EC0C946D
:101C50007B0D0895DF93DD27B92FBF7740E85FE361
:101C60001616170648075B0718F4D92F0E942D0F88
:101C70009F938F937F936F930E947B0FE8E7F0E031
:101C80000E94010F0E940C122F913F914F915F9182
:101C90000E949B11DD2351F09058A2EA2AED3FE00B
:101CA00049EC5FE3D0785D270E94920DDF910C94A0
:101CB0000C120E946D0E0C940C120E94051258F02A
:101CC0000E94FE1140F029F45F3F29F00C94F511B9
:101CD00051110C9440120C94FB110E941D1268F3D8
:101CE0009923B1F3552391F3951B550BBB27AA27D5
:101CF00062177307840738F09F5F5F4F220F331F0F
:101D0000441FAA1FA9F335D00E2E3AF0E0E832D0D6
:101D100091505040E695001CCAF72BD0FE2F29D0D9
:101D2000660F771F881FBB1F261737074807AB07AB
:101D3000B0E809F0BB0B802DBF01FF2793585F4F20
:101D40003AF09E3F510578F00C94F5110C94401236
:101D50005F3FE4F3983ED4F3869577956795B79502
:101D6000F7959F5FC9F7880F911D9695879597F90D
:101D70000895E1E0660F771F881FBB1F6217730786
:101D80008407BA0720F0621B730B840BBA0BEE1F9B
:101D900088F7E09508950E94D20E6894B1110C94D2
:101DA000401208950E94251288F09F5798F0B92F8D
:101DB0009927B751B0F0E1F0660F771F881F991F80
:101DC0001AF0BA95C9F714C0B13091F00E943F12D1
:101DD000B1E008950C943F12672F782F8827B85FE1
:101DE00039F0B93FCCF3869577956795B395D9F7D8
:101DF0003EF490958095709561957F4F8F4F9F4FE2
:101E00000895DF93CF931F930F93FF92EF92DF928A
:101E10007B018C01689406C0DA2EEF010E949B11B1
:101E2000FE01E894A5912591359145915591A6F330
:101E3000EF010E94920DFE019701A801DA9469F763
:101E4000DF90EF90FF900F911F91CF91DF91089558
:101E50000E94641108F48FEF08959B01AC0160E0CB
:101E600070E080E89FE30C94590E19F416F40C947A
:101E7000FB110C947F0F0E942512B8F39923C9F32C
:101E8000B6F39F57550B87FF0E948D0F0024A0E6E5
:101E900040EA900180585695979528F4805C660F2B
:101EA000771F881F20F026173707480730F4621B7A
:101EB000730B840B202931294A2BA695179407947C
:101EC000202531254A2758F7660F771F881F20F0F5
:101ED00026173707480730F4620B730B840B200D6D
:101EE000311D411DA09581F7B901842F9158880FAC
:101EF0009695879508959B01AC010C9488119F3F9E
:101F000031F0915020F4879577956795B795880FB4
:101F1000911D9695879597F9089591505040660FB9
:101F2000771F881FD2F70895CF93DF9382309105F2
:101F300010F482E090E0E091CD03F091CE0320E038
:101F400030E0C0E0D0E0309711F140815181481776
:101F50005907C0F04817590761F48281938120978F
:101F600019F09B838A832BC09093CE038093CD037B
:101F700026C02115310519F04217530718F49A01AC
:101F8000BE01DF01EF010280F381E02DDCCF2115DE
:101F9000310509F1281B390B2430310590F41296D4
:101FA0008D919C9113976115710521F0FB0193832D
:101FB000828304C09093CE038093CD03FD013296BB
:101FC00044C0FD01E20FF31F819391932250310928
:101FD0002D933C933AC02091CB033091CC03232B1B
:101FE00041F420910201309103013093CC032093FE
:101FF000CB0320910001309101012115310541F4FD
:102000002DB73EB74091040150910501241B350BBB
:10201000E091CB03F091CC03E217F307A0F42E1B61
:102020003F0B2817390778F0AC014E5F5F4F24173C
:10203000350748F04E0F5F1F5093CC034093CB03FE
:102040008193919302C0E0E0F0E0CF01DF91CF9166
:1020500008950F931F93CF93DF93009709F48CC0DB
:10206000FC013297138212820091CD031091CE03AE
:102070000115110581F420813181820F931F209178
:10208000CB033091CC032817390779F5F093CC03B3
:10209000E093CB0371C0D80140E050E0AE17BF071A
:1020A00050F412962D913C911397AD0121153105F5
:1020B00009F1D901F3CF9D01DA01338322836081D5
:1020C0007181860F971F8217930769F4EC012881AD
:1020D0003981260F371F2E5F3F4F318320838A813E
:1020E0009B8193838283452B29F4F093CE03E09365
:1020F000CD0342C01396FC93EE931297ED014991E4
:1021000059919E01240F351FE217F30771F4808166
:102110009181840F951F029611969C938E938281D4
:10212000938113969C938E931297E0E0F0E0D80190
:1021300012968D919C911397009719F0F8018C01DC
:10214000F6CF8D919C9198012E5F3F4F820F931F88
:102150002091CB033091CC032817390769F43097CD
:1021600029F41092CE031092CD0302C01382128282
:102170001093CC030093CB03DF91CF911F910F916C
:10218000089581E090E0F8940C94A9128F929F92A8
:10219000AF92BF92CF92DF92EF92FF92CF93DF93F5
:1021A000EC01688179818A819B81611571058105C6
:1021B000910521F464E279ED8BE597E02DE133EFB1
:1021C00041E050E00E94681249015A019B01AC01B4
:1021D000A7EAB1E40E9487126B017C01ACEEB4EF78
:1021E000A50194010E949512DC01CB018C0D9D1D6F
:1021F000AE1DBF1DB7FF03C00197A109B04888837A
:102200009983AA83BB83BC01CD019F77DF91CF91D6
:10221000FF90EF90DF90CF90BF90AF909F908F9006
:1022200008950E94C610089586E091E00E94C610AD
:1022300008956093060170930701809308019093BD
:10224000090108950E94641108F481E00895E8945A
:1022500009C097FB3EF490958095709561957F4FEE
:102260008F4F9F4F9923A9F0F92F96E9BB2793959C
:10227000F695879577956795B795F111F8CFFAF4AC
:10228000BB0F11F460FF1BC06F5F7F4F8F4F9F4FDD
:1022900016C0882311F096E911C0772321F09EE83B
:1022A000872F762F05C0662371F096E8862F70E0A1
:1022B00060E02AF09A95660F771F881FDAF7880F7B
:1022C0009695879597F90895990F0008550FAA0BD1
:1022D000E0E8FEEF16161706E807F907C0F0121639
:1022E0001306E407F50798F0621B730B840B950B3C
:1022F00039F40A2661F0232B242B252B21F4089591
:102300000A2609F4A140A6958FEF811D811D08952D
:102310000E949B110C940C120E94FE1138F00E9436
:10232000051220F0952311F00C94F5110C94FB117B
:1023300011240C9440120E941D1270F3959FC1F35A
:10234000950F50E0551F629FF001729FBB27F00D63
:10235000B11D639FAA27F00DB11DAA1F649F6627B8
:10236000B00DA11D661F829F2227B00DA11D621F07
:10237000739FB00DA11D621F839FA00D611D221FC1
:10238000749F3327A00D611D231F849F600D211DA5
:10239000822F762F6A2F11249F5750409AF0F1F028
:1023A00088234AF0EE0FFF1FBB1F661F771F881F91
:1023B00091505040A9F79E3F510580F00C94F511C3
:1023C0000C9440125F3FE4F3983ED4F386957795E2
:1023D0006795B795F795E7959F5FC1F7FE2B880F37
:1023E000911D9695879597F9089597F99F6780E8CD
:1023F00070E060E008959FEF80EC089500240A9457
:102400001616170618060906089500240A941216CF
:102410001306140605060895092E0394000C11F402
:10242000882352F0BB0F40F4BF2B11F460FF04C0AF
:102430006F5F7F4F8F4F9F4F089557FD9058440F08
:10244000551F59F05F3F71F04795880F97FB991F13
:1024500061F09F3F79F087950895121613061406D0
:10246000551FF2CF4695F1DF08C01616170618065D
:10247000991FF1CF86957105610508940895E89438
:10248000BB2766277727CB0197F90895A1E21A2E7B
:10249000AA1BBB1BFD010DC0AA1FBB1FEE1FFF1F08
:1024A000A217B307E407F50720F0A21BB30BE40B58
:1024B000F50B661F771F881F991F1A9469F760959F
:1024C0007095809590959B01AC01BD01CF01089559
:1024D000052E97FB1EF400940E947F1257FD07D033
:1024E0000E94461207FC03D04EF40C947F125095C4
:1024F0004095309521953F4F4F4F5F4F08959095F0
:102500008095709561957F4F8F4F9F4F08950E94E2
:102510009A12A59F900DB49F900DA49F800D911DC0
:1025200011240895B7FF0C9487120E948712821B12
:10253000930B0895A29FB001B39FC001A39F700D9C
:10254000811D1124911DB29F700D811D1124911DBB
:10255000089510E0CCE7D0E004C0FE010E946D0DAC
:0C2560002196CD37D107C9F7F894FFCFC2
:10256C000000CF03800001000000555500AAAA000E
:10257C000000FFFF000000FF00FFFF00000000084C
:10258C000008000108000800010800080001000014
:10259C00000000018E03C900A700BB004701564D87
:1025AC004450565F317C315F564D4450560D0A00F5
:1025BC00506F6E672047616D652053657269616C61
:0A25CC0020436F6E736F6C65000012
:107800000C94343C0C94513C0C94513C0C94513CE1
:107810000C94513C0C94513C0C94513C0C94513CB4
:107820000C94513C0C94513C0C94513C0C94513CA4
:107830000C94513C0C94513C0C94513C0C94513C94
:107840000C94513C0C94513C0C94513C0C94513C84
:107850000C94513C0C94513C0C94513C0C94513C74
:107860000C94513C0C94513C11241FBECFEFD8E036
:10787000DEBFCDBF11E0A0E0B1E0ECE9FFE702C060
:1078800005900D92A230B107D9F712E0A2E0B1E065
:1078900001C01D92AD30B107E1F70E942D3D0C945F
:1078A000CC3F0C94003C982F959595959595959582
:1078B000905D8F708A307CF0282F295A8091C0000B
:1078C00085FFFCCF9093C6008091C00085FFFCCF60
:1078D0002093C6000895282F205DF0CF982F809127
:1078E000C00085FFFCCF9093C6000895EF92FF92F1
:1078F0000F931F93EE24FF2487018091C00087FD22
:1079000017C00894E11CF11C011D111D81E4E8164B
:1079100082E4F8068FE0080780E0180770F3E09132
:107920000401F091050109958091C00087FFE9CF1E
:107930008091C6001F910F91FF90EF9008950E94D3
:10794000763C982F8091C00085FFFCCF9093C600B5
:1079500091362CF490330CF09053892F089597555D
:10796000892F08951F930E949F3C182F0E949F3CCF
:107970001295107F810F1F9108951F93182F882350
:1079800021F00E94763C1150E1F71F9108951F935A
:10799000182F0E94763C803249F0809103018F5F5E
:1079A000809303018530C1F01F9108958091C0003C
:1079B00085FFFCCF84E18093C6008091C00085FFE5
:1079C000FCCF1093C6008091C00085FFFCCF80E102
:1079D0008093C6001F910895E0910401F091050184
:1079E00009951F9108950E94763C803241F0809164
:1079F00003018F5F80930301853081F008958091AA
:107A0000C00085FFFCCF84E18093C6008091C00058
:107A100085FFFCCF80E18093C6000895E0910401CA
:107A2000F09105010995089540E951E08823A1F0FE
:107A30002D9A28EE33E0FA013197F1F721503040CA
:107A4000D1F72D9828EE33E0FA013197F1F7215064
:107A50003040D1F7815061F708953F924F925F9285
:107A60006F927F928F929F92AF92BF92CF92DF924E
:107A7000EF92FF920F931F93CF93DF93000080E16B
:107A80008093C4001092C50088E18093C10086E015
:107A90008093C2005098589A259A81E00E94143D24
:107AA00024E1F22E9EE1E92E85E9D82E0FE0C02ECA
:107AB00010E1B12EAA24A394B1E49B2EA6E58A2E50
:107AC000F2E57F2EE0E26E2E79E4572E63E5462E36
:107AD00050E5352E0E94763C8033B1F18133B9F107
:107AE000803409F46FC0813409F476C0823409F41B
:107AF00085C0853409F488C0803531F1823521F1A3
:107B0000813511F1853509F485C0863509F48DC0BC
:107B1000843609F496C0843709F403C1853709F423
:107B200072C1863709F466C0809103018F5F80932C
:107B30000301853079F6E0910401F0910501099582
:107B40000E94763C803351F60E94F33CC3CF0E94E2
:107B5000763C803249F78091C00085FFFCCFF092DF
:107B6000C6008091C00085FFFCCF9092C600809136
:107B7000C00085FFFCCF8092C6008091C00085FFC9
:107B8000FCCF7092C6008091C00085FFFCCF609250
:107B9000C6008091C00085FFFCCF5092C600809146
:107BA000C00085FFFCCF4092C6008091C00085FFD9
:107BB000FCCF3092C6008091C00085FFFCCFB09210
:107BC000C60088CF0E94763C863808F4BDCF0E945C
:107BD000763C0E94F33C7ECF0E94763C803809F4CC
:107BE0009CC0813809F40BC1823809F43CC1883942
:107BF00009F48FC080E00E94C73C6CCF84E10E94F2
:107C0000BD3C0E94F33C66CF85E00E94BD3C0E94D3
:107C1000F33C60CF0E94763C809306010E94763C44
:107C2000809307010E94F33C55CF0E94763C80333D
:107C300009F41DC183E00E94BD3C80E00E94C73C66
:107C400049CF0E94763C809309020E94763C809343
:107C5000080280910C028E7F80930C020E94763C79
:107C6000853409F415C18091080290910902892B8D
:107C700089F000E010E00E94763CF801E85FFE4FDA
:107C800080830F5F1F4F80910802909109020817AF
:107C9000190788F30E94763C803209F045CF809125
:107CA0000C0280FF01C16091060170910701660F0F
:107CB000771F7093070160930601A0910802B091AD
:107CC00009021097C9F0E8E0F1E09B01AD014E0F09
:107CD0005F1FF999FECF32BD21BD819180BDFA9A17
:107CE000F99A2F5F3F4FE417F50799F76A0F7B1F4B
:107CF00070930701609306018091C00085FFFCCF5F
:107D0000F092C6008091C00085FFFCCFB092C60003
:107D1000E1CE83E00E94C73CDDCE82E00E94C73CFA
:107D2000D9CE0E94763C809309020E94763C8093D3
:107D300008028091060190910701880F991F909386
:107D40000701809306010E94763C853409F4A6C0A1
:107D500080910C028E7F80930C020E94763C8032D0
:107D600009F0B8CE8091C00085FFFCCFF092C6002C
:107D7000609108027091090261157105B9F140E046
:107D800050E080910C02A82FA170B82FB27011C0E2
:107D9000BB2309F45CC0E0910601F0910701319624
:107DA000F0930701E09306014F5F5F4F46175707B7
:107DB000E8F4AA2369F3F999FECF209106013091E6
:107DC000070132BD21BDF89A90B58091C00085FFB2
:107DD000FCCF9093C6002F5F3F4F30930701209355
:107DE00006014F5F5F4F4617570718F38091C00099
:107DF00085FDE5CE8091C00085FFF8CFE0CE81E023
:107E00000E94C73C67CE0E94763C803209F08CCE3F
:107E10008091C00085FFFCCFF092C6008091C00029
:107E200085FFFCCFE092C6008091C00085FFFCCFAB
:107E3000D092C6008091C00085FFFCCFC092C600E2
:107E40008091C00085FFFCCFB092C60043CEE09188
:107E50000601F091070194918091C00085FFFCCF4D
:107E60009093C6009CCF80E10E94C73C33CE0E9415
:107E7000763C0E94763C182F0E94763C112309F430
:107E800083C0113009F484C08FE00E94C73C22CE29
:107E900080910C02816080930C02E5CE80910C02EF
:107EA000816080930C0259CF809107018823880F4D
:107EB000880B8A2180930B02809106019091070123
:107EC000880F991F90930701809306018091080203
:107ED00080FF09C080910802909109020196909359
:107EE000090280930802F894F999FECF1127E091D6
:107EF0000601F0910701C8E0D1E08091080290915D
:107F00000902103091F40091570001700130D9F34B
:107F100003E000935700E89500915700017001308D
:107F2000D9F301E100935700E89509901990009169
:107F3000570001700130D9F301E000935700E89534
:107F40001395103498F011270091570001700130FB
:107F5000D9F305E000935700E895009157000170B0
:107F60000130D9F301E100935700E895329602976A
:107F700009F0C7CF103011F00296E5CF112480919F
:107F8000C00085FFB9CEBCCE8EE10E94C73CA2CD19
:0C7F900085E90E94C73C9ECDF894FFCF0D
:027F9C00800063
:040000030000780081
:00000001FF