:100000000C9475000C949D000C949D000C949D0024
:100010000C949D000C949D000C949D000C949D00EC
:100020000C949D000C949D000C949D000C949D00DC
:100030000C949D000C949D000C949D000C949D00CC
:100040000C94D2040C949D000C94A0040C947A049B
:100050000C949D000C949D000C949D000C949D00AC
:100060000C949D000C949D00084AD73B3BCE016E3A
:1000700084BCBFFDC12F3D6C74319ABD56833DDAFF
:100080003D00C77F11BED9E4BB4C3E916BAAAABE0E
:10009000000000803F0000000000240027002A002C
:1000A0000000000800020100000304070000000037
:1000B0000000000001020408102040800102040832
:1000C0001020010204081020000000002500280074
:1000D0002B000404040404040404020202020202C9
:1000E0000303030303031C05D80811241FBECFEF2D
:1000F000D8E0DEBFCDBF23E0A6E4B1E001C01D9291
:10010000AC33B207E1F711E0A0E0B1E0E4E5FCE1D7
:1001100002C005900D92A634B107D9F710E0C4E7EC
:10012000D0E004C02197FE010E94E808C337D10740
:10013000C9F70E94C1050C941D0E0C94000090E0BC
:10014000FC01E056FF4F2491FC01EC54FF4F349129
:10015000FC01EE52FF4FE491EE23B9F1222339F175
:10016000233091F038F42130A9F0223001F584B524
:100170008F7D12C0273091F02830A1F02430B9F4DF
:10018000809180008F7D03C0809180008F77809365
:1001900080000DC084B58F7784BD09C08091B00008
:1001A0008F7703C08091B0008F7D8093B000F0E026
:1001B000EE0FFF1FE853FF4FA591B4918FB7F8944E
:1001C000EC9130953E233C938FBF0895CF92DF9200
:1001D000EF92FF920F931F93CF93DF936C017A01FD
:1001E0008B01C0E0D0E0CE15DF0589F0D8016D911C
:1001F0008D01D601ED91FC910190F081E02DC601B9
:100200000995892B11F47E0102C02196ECCFC7011C
:10021000DF91CF911F910F91FF90EF90DF90CF90E2
:100220000895FC01918D828D981761F0828DDF0118
:10023000A80FB11D5D968C91928D9F5F9F73928FD9
:1002400090E008958FEF9FEF0895FC01918D828DCE
:10025000981731F0828DE80FF11D858D90E008959B
:100260008FEF9FEF0895FC01918D228D892F90E0F3
:10027000805C9F4F821B91098F739927089580E7B7
:1002800092E00E94330121E0892B09F420E0822FC3
:100290000895FC01848DDF01A80FB11DA35ABF4F43
:1002A0002C91848D90E001968F739927848FA68975
:1002B000B7892C93A089B1898C9180648C93938D9C
:1002C000848D981306C00288F389E02D80818F7D8C
:1002D00080830895EF92FF920F931F93CF93DF9344
:1002E000EC0181E0888F9B8D8C8D981305C0E88987
:1002F000F989808185FD24C0F62E0B8D10E00F5FFB
:100300001F4F0F731127E02E8C8DE8120CC00FB613
:1003100007FCFACFE889F989808185FFF5CFCE0106
:100320000E944901F1CF8B8DFE01E80FF11DE35AC8
:10033000FF4FF0820B8FEA89FB898081806207C0C2
:10034000EE89FF896083E889F989808180648083F0
:1003500081E090E0DF91CF911F910F91FF90EF909E
:100360000895CF93DF93EC01888D8823C9F0EA8943
:10037000FB89808185FD05C0A889B9898C9186FD9E
:100380000FC00FB607FCF5CF808185FFF2CFA8899B
:10039000B9898C9185FFEDCFCE010E944901E7CF4D
:1003A000DF91CF91089580E090E0892B29F00E94A1
:1003B0003F0181110C9400000895CF93DF9390E0EA
:1003C000FC01EC54FF4F2491FC01EE52FF4F84914D
:1003D000882361F190E0880F991FFC01EA56FF4FD6
:1003E000C591D491FC01E853FF4FA591B4916111DF
:1003F00009C09FB7F8948881209582238883EC9167
:100400002E230BC0623061F49FB7F8943881822F9D
:10041000809583238883EC912E2B2C939FBF06C05D
:100420008FB7F894E8812E2B28838FBFDF91CF916F
:1004300008953FB7F89480914B0190914C01A091A1
:100440004D01B0914E0126B5A89B05C02F3F19F074
:100450000196A11DB11D3FBFBA2FA92F982F882744
:10046000820F911DA11DB11DBC01CD0142E0660F9F
:10047000771F881F991F4A95D1F708950F931F93EF
:10048000CF93DF93CDB7DEB729970FB6F894DEBFD1
:100490000FBECDBF0E9419020091310310913203AB
:1004A0002091330330913403DC01CB01801B910B8D
:1004B000A20BB30BC297A105B10560F3F89480912C
:1004C0002703909128039A838983E0912B03F0916D
:1004D0002C03DF0111968081898790912303E0919D
:1004E0003503F091360380913703992309F42EC028
:1004F0009081982B98879081809589238F838F8115
:100500008C8388E08B8358856F8149853B812C8162
:1005100089819A81508347FD252F3A952083262F84
:1005200039F0441F00C000006083000000C0F2CF1B
:1005300038E04D9160830000019761F7F093360336
:10054000E093350349873B832C8338C09081982BF7
:1005500098879081809589238F838F818E8388E00F
:100560008D8358856F8149853D812E8189819A814E
:10057000508347FD252F00C000C0208300C000C06D
:1005800000C000C000C060830000262F3A9541F0F3
:10059000441F000000C000C000C000C000C0E8CF81
:1005A00038E04D9100C0608300C0019709F7F093D7
:1005B0003603E093350349873D832E839A838983ED
:1005C00078940E94190260933103709332038093F0
:1005D00033039093340329960FB6F894DEBF0FBE11
:1005E000CDBFDF91CF911F910F910895CF92DF92F0
:1005F000EF92FF92CF93DF93FC0120813181428102
:10060000538164817581868197810E946E0990581B
:1006100021EE3EE245E652E40E94600B6B017C0154
:10062000C0912103D0912203BE010D2E000C880B36
:10063000990B0E947C0A9B01AC01C701B6010E9484
:10064000530B181694F464EB70E06C1B7D0B072EB3
:10065000000C880B990B0E947C0A9B01AC01C7011E
:10066000B6010E94CD0918163CF5BE01645B710904
:10067000072E000C880B990B0E947C0A9B01AC0191
:10068000C701B6010E94530B87FD18C08827992720
:100690008C1B9D0BBC01990F880B990B0E947C0A47
:1006A0009B01AC01C701B6010E94CD09881F8827B4
:1006B000881F91E0892703C080E001C081E0DF91BD
:1006C000CF91FF90EF90DF90CF9008950E94590D49
:1006D0004F925F926F927F928F929F92AF92BF9252
:1006E000CF92DF92EF92FF92CF93DF93EC010E94C3
:1006F000AC0D28ECC22ED12CE12CF12CA7019601D7
:100700000E94BA0D64567109810991090E947C0A00
:1007100020E030E048EC52E40E94D20968837983FB
:100720008A839B830E94AC0DA70196010E94BA0D9B
:1007300064567109810991090E947C0A20E030E029
:1007400048EC52E40E94D2096B017C016C837D83EA
:100750008E839F83488059806A807B80A3019201A9
:10076000C301B2010E94600B4B015C01A70196011D
:10077000C701B6010E94600B9B01AC01C501B40129
:100780000E94EF080E94D30B4B015C0120E030E097
:10079000A9010E94CD098823F1F020E030E040E873
:1007A0005FE3C501B4010E94CD098823A1F0A50132
:1007B0009401C301B2010E94D209688379838A83BC
:1007C0009B83A5019401C701B6010E94D2096C83E5
:1007D0007D838E839F83DF91CF91FF90EF90DF9099
:1007E000CF90BF90AF909F908F907F906F905F90D1
:1007F0004F9008958F929F92AF92BF92CF92DF92C7
:10080000EF92FF920F931F93CF93DF93CDB7DEB795
:1008100028970FB6F894DEBF0FBECDBF8C0188E0DD
:1008200090E00E942C0C892B19F0C8010E946803EB
:10083000CE0101960E94680388E0FE013196D8013E
:1008400001900D928A95E1F788E0F82EC8010E9488
:10085000F602882371F0F80180809180A280B38035
:1008600020E030E0A901C501B4010E94CD0987FF55
:100870000DC0CE0101960E946803FE013196D80199
:100880008F2D01900D928A95E1F7E0CFC0901D0366
:10089000D0901E03E0901F03F0902003A701960163
:1008A000C501B4010E94600BF801608371838283EB
:1008B0009383A701960164817581868197810E9447
:1008C000600BF8016483758386839783C80128963B
:1008D0000FB6F894DEBF0FBECDBFDF91CF911F9151
:1008E0000F91FF90EF90DF90CF90BF90AF909F90CF
:1008F0008F9008951F920F920FB60F9211242F938D
:100900003F934F935F936F937F938F939F93AF9397
:10091000BF93EF93FF9380E792E00E944901FF911C
:10092000EF91BF91AF919F918F917F916F915F9167
:100930004F913F912F910F900FBE0F901F901895E0
:100940001F920F920FB60F9211242F938F939F93A4
:10095000EF93FF93E0918002F09181028081E0911A
:100960008602F091870282FD12C0908180918902F7
:100970008F5F8F7320918A02821751F0E091890274
:10098000F0E0E059FD4F958F8093890201C080818E
:10099000FF91EF919F918F912F910F900FBE0F902C
:1009A0001F9018951F920F920FB60F9211242F933C
:1009B0003F938F939F93AF93BF9380914701909103
:1009C0004801A0914901B0914A013091460123E0CC
:1009D000230F2D3720F40196A11DB11D05C026E877
:1009E000230F0296A11DB11D20934601809347015C
:1009F00090934801A0934901B0934A0180914B0123
:100A000090914C01A0914D01B0914E010196A11D14
:100A1000B11D80934B0190934C01A0934D01B09375
:100A20004E01BF91AF919F918F913F912F910F9068
:100A30000FBE0F901F901895CF93DF931092730203
:100A40001092720288EE93E0A0E0B0E0809374020E
:100A500090937502A0937602B09377028DE191E0B6
:100A6000909371028093700285EC90E090937D02E8
:100A700080937C0284EC90E090937F0280937E02CE
:100A800080EC90E0909381028093800281EC90E072
:100A9000909383028093820282EC90E0909385028F
:100AA0008093840286EC90E0909387028093860284
:100AB0001092890210928A0210928B0210928C027C
:100AC0001092240310922A031092310310923203E1
:100AD000109233031092340381E0809330038093AB
:100AE0002D0310922E0392E090932F038093230303
:100AF000C3E6D3E0D0932803C093270383E693E0B3
:100B00000E942C0C90932C0380932B03009769F088
:100B1000FC019E01119221503040E1F781E291E009
:100B2000909326038093250308C010922803109207
:100B30002703109226031092250386E08093290351
:100B400080912403882339F061E086E00E94DD0172
:100B500086E00E949F00E8EDF0E0E491F0E0EE0F07
:100B6000FF1FE853FF4F8591949190933603809334
:100B70003503EAEBF0E0E491E0933703DF91CF91A6
:100B80000895CF93DF93CDB7DEB7E4970FB6F8940F
:100B9000DEBF0FBECDBF789484B5826084BD84B5BE
:100BA000816084BD85B5826085BD85B5816085BD68
:100BB00080916E00816080936E0010928100809120
:100BC00081008260809381008091810081608093A8
:100BD0008100809180008160809380008091B100CD
:100BE00084608093B1008091B00081608093B000F8
:100BF00080917A00846080937A0080917A0082608C
:100C000080937A0080917A00816080937A0080914D
:100C10007A00806880937A001092C100E09180028F
:100C2000F091810282E08083E0917C02F0917D026C
:100C30001082E0917E02F0917F028FEC808310920F
:100C40008802E0918402F091850286E08083E09141
:100C50008202F0918302808180618083E091820230
:100C6000F0918302808188608083E0918202F0911C
:100C70008302808180688083E0918202F091830208
:100C800080818F7D808348E150E069E271E080E7F8
:100C900092E00E94E60042E050E062E471E080E70A
:100CA00092E00E94E6008091290387FD07C061E081
:100CB0000E94DD01809129030E949F0081E08093C2
:100CC000240380912B0390912C03892B11F00E9417
:100CD0003E0280E090E0A0E0B1E480930D039093A9
:100CE0000E03A0930F03B09310038093110390930E
:100CF0001203A0931303B0931403CE0109960E942C
:100D0000680378E0F72ECE0109960E94F602811161
:100D10000EC0CE0101960E946803FE013196DE01ED
:100D200019968F2D01900D928A95E1F7ECCFC09026
:100D30001D03D0901E03E0901F03F0902003A70135
:100D4000960169857A858B859C850E94600B6987F1
:100D50007A878B879C87A70196016D857E858F8515
:100D600098890E94600B6D877E878F87988B88E0BB
:100D7000FE013996A5E1B3E001900D928A95E1F765
:100D800080E090E0A0E8BFE380931D0390931E03F2
:100D9000A0931F03B093200385E590E09093220376
:100DA00080932103C12CD12CE12C61E4F62E6090BC
:100DB000100168AA7090110179AA609012016AAAC4
:100DC00070900D017BAA60900E016CAA40901103F7
:100DD00050901203609013037090140320E030E0F1
:100DE00040E05FE3C301B2010E94CD0987FD0AC064
:100DF00020E030E044E851E4C301B2010E94530B0B
:100E000018168CF48091190390911A03A0911B037A
:100E1000B0911C03B0588093190390931A03A093C8
:100E20001B03B0931C0320E030E0A90160910D0387
:100E300070910E0380910F03909110030E94CD09D1
:100E400087FF1DC0C0920D03D0920E03E0920F03E6
:100E5000F0921003C0921103D0921203E092130398
:100E6000F0921403CE0101960E94FA0388E0FE017D
:100E70003196A5E1B3E001900D928A95E1F720E06B
:100E800030E048E851E460910D0370910E038091C9
:100E90000F03909110030E94530B1816ECF4C092AC
:100EA0000D03D0920E03E0920F03F0921003C09254
:100EB0001103D0921203E0921303F0921403CE01B7
:100EC00001960E94FA0388E0FE013196A5E1B3E0A5
:100ED00001900D928A95E1F7209115033091160348
:100EE000409117035091180360910D0370910E0308
:100EF00080910F03909110030E94EF082B013C0199
:100F000060930D0370930E0380930F03909310036F
:100F10002091190330911A0340911B0350911C0337
:100F20006091110370911203809113039091140347
:100F30000E94EF084B015C01609311037093120350
:100F40008093130390931403C301B2010E94440AD7
:100F50002B013C0161317105A4F4C501B4010E946B
:100F6000440A613171056CF441E1449D9001459D55
:100F7000300D1124620F731FFB01E15BFE4F81E016
:100F800080835FE4A52E51E0B52EBA8AA98A1E8A15
:100F90001D8A188E1F8AA0E0B0E050910F015CA35B
:100FA000809110018DA3909111019EA3E0911201F7
:100FB000EFA3F0910A01F8A760900B0169A6709069
:100FC0000C017AA6209116012BA7309117013CA79E
:100FD000409118014DA7509113015EA78091140113
:100FE0008FA7809015011D0149895A895C8B4B8B15
:100FF0001A8E198E80E090E0EB89FC8920812230E6
:10100000B1F040F4222379F02130E9F40EA59FA439
:10101000182D18C0243099F070F02530A1F408A5DF
:1010200099A41AA50FC00BA59CA41DA50BC008A9C7
:1010300099A81AA907C00DA19EA01FA103C00BA9C2
:101040009CA81CA19BA22091250330912603221667
:10105000330608F065C0402E512C612C712C3201F2
:1010600055244424FBA15F2A412A93014427552794
:101070002B8F3C8F4D8F5E8F5527472D362D252D7D
:101080002F8F38A349A35AA35F8D442D60912A0363
:10109000611102C07B8D15C0462F50E0EB8DFC8D99
:1010A0004E9F90014F9F300D5E9F300D1124732F86
:1010B000FF8DF69F90011124532F469E200111248D
:1010C000452D60913003E0912D0320912B03309149
:1010D0002C036E1307C0EF89F88DE80FF91F2E0F50
:1010E0003F1F0CC0E98DFA8D6D887E88E60DF71DD7
:1010F0002E0F3F1FF901E60FF11D108260912D03A5
:10110000F901E60FF11D708360912E03F901E60FDE
:10111000F11D508350912F03F901E50FF11D40831C
:101120002B893C892F5E3F4F3C8B2B8B3FEF231A43
:10113000330A0396498D5A8D4C5F5F4F5A8F498F02
:101140008333910509F058CF89899A8901969A8B42
:10115000898B5196EF89F88DF396F88FEF8B2D8957
:101160003E892C5B3F4F3E8B2D8BA13231E0B30784
:1011700009F039CF80912B0390912C03892B11F02A
:101180000E943E0280E090E0F501E80FF91F108216
:101190004196813251E09507B9F78FEFA81AB80A46
:1011A00090E6A91691E0B90669F70E94D3010ECE28
:1011B00080912B0390912C03009711F00E94C10C99
:1011C0008091290387FD03C060E00C94DD01089540
:1011D000EE0FFF1F0590F491E02D09945058BB27A6
:1011E000AA270E9406090C94190B0E940B0B38F0D9
:1011F0000E94120B20F039F49F3F19F426F40C944E
:10120000E10A0EF4E095E7FB0C94DB0AE92F0E945B
:101210002A0B58F3BA17620773078407950720F063
:1012200079F4A6F50C944C0B0EF4E0950B2EBA2F26
:10123000A02D0B01B90190010C01CA01A0011124DC
:10124000FF27591B99F0593F50F4503E68F11A1688
:10125000F040A22F232F342F4427585FF3CF469519
:1012600037952795A795F0405395C9F77EF41F163B
:10127000BA0B620B730B840BBAF09150A1F0FF0F05
:10128000BB1F661F771F881FC2F70EC0BA0F621FF1
:10129000731F841F48F4879577956795B795F795E1
:1012A0009E3F08F0B0CF9395880F08F09927EE0F76
:1012B0009795879508950E940B0B60F080E891E068
:1012C00009F49EEF0E94120B28F040E851E071F4FF
:1012D0005EEF0CC00C94E10A0C944C0BE92FE07803
:1012E0000E942A0B40F3092E052AB1F3261737076F
:1012F0004807590738F00E2E07F8E02569F0E02579
:10130000E0640AC0EF6307F8009407FADB01B90153
:101310009D01DC01CA01AD01EF930E94E9090E9421
:10132000190B0E949E095F91552339F02BED3FE088
:1013300049E450FD49EC0C94EF080895DF93DD2754
:10134000B92FBF7740E85FE31616170648075B071B
:1013500018F4D92F0E94580B9F938F937F936F930C
:101360000E94130CE8E6F0E00E94E40A0E94190BC8
:101370002F913F914F915F910E94730BDD2351F0AC
:101380009058A2EA2AED3FE049EC5FE3D0785D2770
:101390000E940609DF910C94190B0E94B70A08F409
:1013A00081E008950E94E6090C94190B0E94120B2B
:1013B00058F00E940B0B40F029F45F3F29F00C9489
:1013C000DB0A51110C944D0B0C94E10A0E942A0B7C
:1013D00068F39923B1F3552391F3951B550BBB2764
:1013E000AA2762177307840738F09F5F5F4F220FA9
:1013F000331F441FAA1FA9F335D00E2E3AF0E0E8A0
:1014000032D091505040E695001CCAF72BD0FE2FE9
:1014100029D0660F771F881FBB1F2617370748077D
:10142000AB07B0E809F0BB0B802DBF01FF27935835
:101430005F4F3AF09E3F510578F00C94DB0A0C9414
:101440004D0B5F3FE4F3983ED4F38695779567950F
:10145000B795F7959F5FC9F7880F911D969587956A
:1014600097F90895E1E0660F771F881FBB1F621789
:1014700073078407BA0720F0621B730B840BBA0B47
:10148000EE1F88F7E09508950E944B0A6894B11109
:101490000C944D0B08950E94320B88F09F5798F0E2
:1014A000B92F9927B751B0F0E1F0660F771F881F69
:1014B000991F1AF0BA95C9F714C0B13091F00E9483
:1014C0004C0BB1E008950C944C0B672F782F8827B4
:1014D000B85F39F0B93FCCF3869577956795B395AA
:1014E000D9F73EF490958095709561957F4F8F4F19
:1014F0009F4F0895E89409C097FB3EF4909580951E
:10150000709561957F4F8F4F9F4F9923A9F0F92FC9
:1015100096E9BB279395F695879577956795B79547
:10152000F111F8CFFAF4BB0F11F460FF1BC06F5F2D
:101530007F4F8F4F9F4F16C0882311F096E911C03F
:10154000772321F09EE8872F762F05C0662371F060
:1015500096E8862F70E060E02AF09A95660F771F74
:10156000881FDAF7880F9695879597F90895990F50
:101570000008550FAA0BE0E8FEEF16161706E8075D
:10158000F907C0F012161306E407F50798F0621B7E
:10159000730B840B950B39F40A2661F0232B242B53
:1015A000252B21F408950A2609F4A140A6958FEF72
:1015B000811D811D089597F99F6780E870E060E0C4
:1015C00008959FEF80EC0895DF93CF931F930F93BF
:1015D000FF92EF92DF927B018C01689406C0DA2EB5
:1015E000EF010E94730BFE01E894A59125913591BE
:1015F00045915591A6F3EF010E940609FE0197015E
:10160000A801DA9469F7DF90EF90FF900F911F9196
:10161000CF91DF91089500240A9416161706180634
:101620000906089500240A941216130614060506E6
:101630000895092E0394000C11F4882352F0BB0F77
:1016400040F4BF2B11F460FF04C06F5F7F4F8F4FDA
:101650009F4F089557FD9058440F551F59F05F3F15
:1016600071F04795880F97FB991F61F09F3F79F0C4
:1016700087950895121613061406551FF2CF469546
:10168000F1DF08C0161617061806991FF1CF8695C8
:101690007105610508940895E894BB2766277727AC
:1016A000CB0197F908950E94B70A08F48FEF0895C7
:1016B0009B01AC0160E070E080E89FE30C94D209EC
:1016C0000E94730B0C94190B0E940B0B38F00E94B4
:1016D000120B20F0952311F00C94DB0A0C94E10A14
:1016E00011240C944D0B0E942A0B70F3959FC1F3AB
:1016F000950F50E0551F629FF001729FBB27F00DC0
:10170000B11D639FAA27F00DB11DAA1F649F662714
:10171000B00DA11D661F829F2227B00DA11D621F63
:10172000739FB00DA11D621F839FA00D611D221F1D
:10173000749F3327A00D611D231F849F600D211D01
:10174000822F762F6A2F11249F5750409AF0F1F084
:1017500088234AF0EE0FFF1FBB1F661F771F881FED
:1017600091505040A9F79E3F510580F00C94DB0A40
:101770000C944D0B5F3FE4F3983ED4F38695779538
:101780006795B795F795E7959F5FC1F7FE2B880F93
:10179000911D9695879597F9089519F416F40C9470
:1017A000E10A0C94170C0E94320BB8F39923C9F389
:1017B000B6F39F57550B87FF0E94250C0024A0E627
:1017C00040EA900180585695979528F4805C660F02
:1017D000771F881F20F026173707480730F4621B51
:1017E000730B840B202931294A2BA6951794079453
:1017F000202531254A2758F7660F771F881F20F0CC
:1018000026173707480730F4620B730B840B200D43
:10181000311D411DA09581F7B901842F9158880F82
:101820009695879508959B01AC010C94600B9F3FA2
:1018300031F0915020F4879577956795B795880F8B
:10184000911D9695879597F9089591505040660F90
:10185000771F881FD2F70895CF93DF9382309105C9
:1018600010F482E090E0E0913A03F0913B0320E035
:1018700030E0C0E0D0E0309711F14081518148174D
:101880005907C0F04817590761F482819381209766
:1018900019F09B838A832BC090933B0380933A0378
:1018A00026C02115310519F04217530718F49A0183
:1018B000BE01DF01EF010280F381E02DDCCF2115B5
:1018C000310509F1281B390B2430310590F41296AB
:1018D0008D919C9113976115710521F0FB01938304
:1018E000828304C090933B0380933A03FD013296B8
:1018F00044C0FD01E20FF31F8193919322503109FF
:101900002D933C933AC02091380330913903232B17
:1019100041F4209102013091030130933903209367
:10192000380320910001309101012115310541F466
:101930002DB73EB74091040150910501241B350B92
:10194000E0913803F0913903E217F307A0F42E1B5E
:101950003F0B2817390778F0AC014E5F5F4F241713
:10196000350748F04E0F5F1F5093390340933803FB
:101970008193919302C0E0E0F0E0CF01DF91CF913D
:1019800008950F931F93CF93DF93009709F48CC0B2
:10199000FC0132971382128200913A0310913B03AB
:1019A0000115110581F420813181820F931F20914F
:1019B0003803309139032817390779F5F093390343
:1019C000E093380371C0D80140E050E0AE17BF0784
:1019D00050F412962D913C911397AD0121153105CC
:1019E00009F1D901F3CF9D01DA01338322836081AC
:1019F0007181860F971F8217930769F4EC01288184
:101A00003981260F371F2E5F3F4F318320838A8114
:101A10009B8193838283452B29F4F0933B03E093CE
:101A20003A0342C01396FC93EE931297ED0149914D
:101A300059919E01240F351FE217F30771F480813D
:101A40009181840F951F029611969C938E938281AB
:101A5000938113969C938E931297E0E0F0E0D80167
:101A600012968D919C911397009719F0F8018C01B3
:101A7000F6CF8D919C9198012E5F3F4F820F931F5F
:101A800020913803309139032817390769F43097CA
:101A900029F410923B0310923A0302C0138212827F
:101AA0001093390300933803DF91CF911F910F9169
:101AB000089581E090E0F8940C941D0E8F929F920F
:101AC000AF92BF92CF92DF92EF92FF92CF93DF93CC
:101AD000EC01688179818A819B816115710581059D
:101AE000910521F464E279ED8BE597E02DE133EF88
:101AF00041E050E00E94BA0D49015A019B01AC013E
:101B0000A7EAB1E40E94D90D6B017C01ACEEB4EF01
:101B1000A50194010E94E70DDC01CB018C0D9D1DF8
:101B2000AE1DBF1DB7FF03C00197A109B048888350
:101B30009983AA83BB83BC01CD019F77DF91CF91AD
:101B4000FF90EF90DF90CF90BF90AF909F908F90DD
:101B500008950E945E0D089586E091E00E945E0D5A
:101B60000895609306017093070180930801909394
:101B700009010895052E97FB1EF400940E94D10DD3
:101B800057FD07D00E94EC0D07FC03D04EF40C94D7
:101B9000D10D50954095309521953F4F4F4F5F4F58
:101BA000089590958095709561957F4F8F4F9F4FC9
:101BB00008950E940E0EA59F900DB49F900DA49FB6
:101BC000800D911D11240895B7FF0C94D90D0E942A
:101BD000D90D821B930B0895A1E21A2EAA1BBB1BE1
:101BE000FD010DC0AA1FBB1FEE1FFF1FA217B307E9
:101BF000E407F50720F0A21BB30BE40BF50B661FFF
:101C0000771F881F991F1A9469F7609570958095C2
:101C100090959B01AC01BD01CF010895A29FB00139
:101C2000B39FC001A39F700D811D1124911DB29F10
:101C3000700D811D1124911D089510E0C4E7D0E0BE
:101C400004C0FE010E94E8082196C537D107C9F7F4
:041C5000F894FFCF36
:101C540000003C038000010000000000FFFF0000C2
:101C640000FF00FFFF00000000000000006A01E622
:101C740000330111012501B101506F6E67204761E6
:101C84006D652053657269616C20436F6E736F6C70
:061C940065000D0A0000CE
:00000001FF
